:400000000010002011000000B5070000B507000080B500AF00F0D2FB80B584B000AF021CFB1D1A70224A3B1C0B3312781A70214A3B1C0A3312781A701F4B1B68013BFB60E2
:400040001AE01E4B1868391C0B31FA68131C5B009B18C31801331B780B70184B1868391C0A31FA68131C5B009B18C31802331B780B70FB68013BFB60FB68002B0ADB0F4B59
:400080001968FA68131C5B009B185B5CFA1D12789A42D6D90A4B3A1C0B3212781A60094B3A1C0A3212781A60BD4604B080BDC046CCF1FF0FCDF1FF0F541C0000D400002072
:4000C0001CFF0B4020FF0B4080B500AF1C4B1C4A12688021C9020A431A601820FFF79CFF184B19221A60052000F09AFE164B174A1278D2B21A60052000F076FF104B104ABB
:400100001168134A0A401A60124B10221A60124B30221A60114B20221A60114B802212061A60104B802212061A600F4B0F4A1A600F4B104A1A60104B104A1A60BD4680BDF2
:4001400000010B402CFF0B4028FF0B40E5F1FF0FFFFFFBFF080202400C0202403002024008010B4004010B40000002400E000080400002403300008080000240CF000080A5
:4001800080B586B000AF72B63B1C173300221A7026E03B1C17331A78131C5B009B185B00644A9B183B613B691A78597809020A43997809040A43DB781B0613431A1C3B6974
:4001C00019795B791B020B439BB2101C191C00F079FB3B1C17333A1C1732127801321A703B1C17331B78022BD3D93B1C173300221A7038E03B1C17331A78131C9B009B1873
:400200005B004D4A9B18FB60FB681A78597809020A43997809040A43DB781B061343BB60FB681A79597909020A43997909040A43DB791B0613437B60BA1CFB68197A5B7A7D
:400240001B020B431380BB1C1B88B9687A68081C111C1A1C00F046FB3B1C17333A1C1732127801321A703B1C17331B78002BC1D0324A334B101C191C00F046FB314B80222A
:4002800052001A80304B01221A70304B992212041A602F4BC02292051A602E4BEE2212021A602D4BEE221A602C4B20221A602C4BC42292021A602B4B20221A602A4B8022F7
:4002C0001A602A4BC42212041A60294BD82212011A60284B03221A60274B24221A60274B992212041A60264B264A1A60264B802292051A60254B8022D2051A60244B992291
:4003000012041A60234B234A1278D2B202210A43D2B21A701F4B1F4A1278D2B206210A43D2B21A70FFF7D0FE00F02EFBBD4606B080BDC046A8190000BC190000C819000013
:40034000E819000000600F4002600F4000000140080001400C00014010000140000004400800044018000440000204400802044008030440000404400804044000500F40EE
:4003800020500F400400990024500F4028500F4030500F4000700F4010B5064C2378002B07D10548002802D0044800E000BF0121217010BDE8000020000000004019000001
:4003C00008B5084B002B03D00748084900E000BF07480168002903D0064A002A00D0904708BDC0460000000040190000EC000020C80000200000000080B582B000AF00F0BD
:40040000DDFA00F01BFE00F0B3FE164B181C00F051FF0D2000F034FF0A2000F031FF124B181C00F047FF0D2000F02AFF0A2000F027FF00F0A3F900F093F900237B6000F089
:4004400023F97B68181C0A2101F036FA0B1C002B03D100F00BF800237B607B6801337B60EDE7C046541900006419000090B585B000AF0023BB600023FB6046E0FC1D00F01C
:40048000E7FE031C2370FB1D1B78002B3DD0BC1D00F0CEFE031C23701F4B1B681F4AB91D0978D1541C4B1B685A1C1B4B1A60BB1D1B78102B04D1184B00221A6000F0B8F84F
:4004C000BB1D1B780D2B20D1154B1B68181C00F085F8031C002B05D0124B181C00F028F80123BB60104B1B68181C00F077F8031C002B05D00D4B181C00F01AF80123FB6048
:40050000054B00221A6000F093F8FB68002BB5D0BD4605B090BDC0463002002004010020D00000207C190000CC00002084190000F0B5474680B488B000AFF8606846804698
:400540000020F861234800680138421E94466346BB61844661460024A44662464B0F9C46D4007C6063467C6823437B60CB00021C131C0022141C5A0FE6001643DD00031C08
:400580000733DB08DB006C46E41AA5466B4600337B610123FB610AE0FB69013B0E49FA698A1811787A69D154FB690133FB61094B1B685A1EFB699A42EEDC7B69181C00F09C
:4005C000BDFD0D2000F050FDC546BD4608B004BC9046F0BD300200200401002080B584B000AF78600023FB600023BB600123FB6010E0FB68013B7A68D3181A780B49FB6887
:40060000CB181B789A4202D1BB680133BB60FB680133FB60FB68062BEBDDBB68063B5A425341DBB2181CBD4604B080BD0401002080B582B000AF00237B6007E0074A7B6838
:40064000D31820221A707B6801337B607A68044B9A42F3DDBD4602B080BDC046040100202B01000080B582B000AF021CFB1D1A70FB1D1B7817225340DBB21733DBB2181CC6
:40068000BD4602B080BDC04680B586B000AF5220012100F023FA00237B6100237B6110E0002000F067FB031CDBB2181CFFF7DAFF031C1A1C27497B69CB181A707B6901334A
:4006C0007B617B69052BEBDD00F090FA214B1B781A1C022313405A425341DBB23B611D4B1B781A1C012313405A425341DBB2FB603B69002B04D0184B181C00F01FFD03E0D9
:40070000164B181C00F01AFDFB68002B04D0124B181C00F013FD03E0104B181C00F00EFD0C4B5B78BB600B4B9B787B60BB68181C00F09AFC7B68181C00F096FC0D2000F0A1
:4007400093FC00F00DF80A2000F02AFCBD4606B080BDC0464C0200208C1900009019000080B500AF5220002100F0B8F9002000F09BFA00F03BFABD4680BDC04680B500AFF1
:400780005220002100F0AAF9402000F08DFA002000F08AFA00F02AFA054B181C00F0CEFC96235B00181C00F0FBFBBD4680BDC0469419000080B500AFFEE7C04680B586B0FB
:4007C00000AF254B7B61254B3B61234B7B61234B3B6132E03B691B68FB603B695B68BB603B699B683B6000237B600CE0FB681A68BB681A60BB680433BB60FB680433FB6070
:400800007B6804337B607A683B689A42EED13B69DB683B6000237B6008E0BB6800221A60BB680433BB607B6804337B607A683B689A42F2D13B6910333B617B695A1E93413B
:40084000DBB27A69013A7A61002BC3D101F040F8FFF7D2FDFEE7C046010000007C1C000080B582B000AF00237B600FE07B68032B04D8104B7A689200D35800E00E4B0F4A45
:40088000796889008B507B6801337B607B682F2BECD9FFF775FC0A4B00221A608023DB058022D205126801210A431A60BD4602B080BDC04600000000B50700000000002074
:4008C000C000002080B582B000AF786039607A683B68101C00211A1C01F029F8BD4602B080BDC04680B584B000AFF860B9607A60F968BA687B68081C111C1A1C01F00EF838
:40090000BD4604B080BDC04680B586B000AF7860396000233B6100237B612EE07B699B007A68D3181B68BB603B1C0F33BA681A70BB68FF229343BB6017E03B695B003A686A
:40094000D3181B781A1CBB68D3183A69520039688A1852781A703B6901333B613B1C0F333A1C0F321278013A1A703B1C0F331B78002BE2D17B6901337B617B69072BCDD97C
:40098000BD4606B080BDC04680B500AFBD4680BD80B500AF00F02CF8BD4680BD80B500AF054B054A1268802109060A431A6000F017F8BD4680BDC0460000064080B500AFFC
:4009C000064B1B78002B04D1FFF7E2FF034B01221A70FFF7E3FFBD4680BDC0463802002080B500AF0A2000F0A5FABD4680BDC04680B500AF234B00221A60234B234A1A60A3
:400A0000234B234A12680C210A431A60214B224A1A60224B00221A60214B00221A60214B1D4A1A60204B00221A600A2000F098FA0A20032100F02AFA1C4B0A20191C00F0F2
:400A4000FFF91B4B00221A601A4B00221A601A4B00221A60194B1A4A1A601A4B00221A60194B00221A60194B10221A70184B00221A80184B00221A60174B00221A60BD46F8
:400A800080BDC0460000064060000640770800807000064000030640070100800403064010030640000206400402064025130000C80E0640880E0640480F0640080F06401D
:400AC00013010000C80F0640880F0640520200205E020020640200205802002080B584B000AF786039600023FB600423BB60374B1B78DBB2102B64D1354B1A680123134020
:400B000002D00823BB605CE00A2000F029FA7B685A00FF2313407B603B68002B03D12B4B24221A7006E0294B25221A707B68012213437B60274B7A681A60274B274A1A6022
:400B4000274B02221A60C046234B1A68254B1340FAD0214B1A680423134002D00023BB601CE01D4B1A680223134002D00223BB6014E0194B1A680123134007D0134B102242
:400B80001A700123BB600123FB6007E00F4B10221A7080235B00BB600123FB600E4B114A1A60FB68002B0CD00F4B0F4A1268520052081A600C4B0C4A1268802109060A4349
:400BC0001A60BB68181CBD4604B080BD520200206400064040020640000F06401703000068000640070100000000064080B582B000AF00237B6004233B60254B1B78DAB2BA
:400C000020231340DBB2002B3CD0224B224A116820220A4001D0182200E010221A60C0461E4B1A681E4B1340FAD01C4B1A681023134002D000233B600EE0184B1A68012378
:400C4000134004D001233B6001237B6004E080235B003B6001237B60104B114A1A600C4B10221A707B68002B0CD00E4B0D4A1268520052081A600B4B0A4A126880210906C2
:400C80000A431A603B68181CBD4602B080BDC046520200206800064064000640000F0640110100000000064080B584B000AF78600023FB600423BB60294B1B78DAB220239F
:400CC0001340DBB2002B46D0264B7A681A60C046254B1A68254B1340FAD0234B1A680423134005D01E4B60221A700023BB601FE01D4B1A680223134005D0194B60221A70E9
:400D00000223BB6014E0184B1A680123134007D0134B10221A700123BB600123FB6007E00F4B10221A7080235B00BB600123FB600D4B0E4A1A60FB68002B0CD00C4B0C4A9E
:400D40001268520052081A60094B094A1268802109060A431A60BB68181CBD4604B080BD5202002040020640000F0640070100000000064080B584B000AF786001235B42A0
:400D8000FB601F4B1B78DAB220231340DBB2002B30D0C0461B4B1A680423134004D11A4B1A681A4B1340F5D0164B1A680423134010D0174B1B68FB60124B04221A607B6803
:400DC000002B03D1134B04221A6013E00C4B60221A700FE00C4B104A1A60104B0F4A1268520052081A600D4B0C4A1268802109060A431A60FB68181CBD4604B080BDC04602
:400E000052020020C00F0640000F064001010000400306406800064017030000000006400230800804D0C0460138FDD1C046C0467047EFF3108072B6704780F310887047CA
:400E400080B584B000AF021C3960FB1D1A7080239B05FB60FB1D1B781F2B02D9002000F095F8FB1D1B7810339B00FA68D3181B68BB60FB1D1B7810339B00FA68D3183A680A
:400E80001A60BB68181CBD4604B080BD90B587B000AF0A1CFB1D011C1970BB1D1A70BB1D1B78032B02D9002000F070F8FB1D1B781F2B02D9002000F069F8FB1D1A780323FF
:400EC0001340DB0006337B613C1C1334FFF7B1FF031C2370FB1D1B789B08DBB29B0014495B181B68FB607B690322111C99400B1CDA43FB681340FB60BB1D1A787B69111CB5
:400F000099400B1CFA681343FB60FB1D1B789B08DBB29B00064A9B18FA681A603B1C13331B78181CFFF789FFBD4607B090BDC04600E400E080B582B000AF021CFB1D1A70C0
:400F4000064BFA1D11781F220A400121081C9040021C1A60BD4602B080BDC04600E100E080B582B000AF021CFB1D1A70064BFA1D11781F220A400121081C9040021C1A608E
:400F8000BD4602B080BDC04680E100E080B582B000AF021CFB1D1A7001BEBD4602B080BD80B582B000AF786008E00C4B1B68181CFFF736FF7B680A4A9B187B607A68802318
:400FC0001B029A42F1D8074B1B687A685343181CFFF726FFBD4602B080BDC046E40000200080FFFFDC00002080B582B000AF021CBB1D1A80BB1D1B88044A12785343181C5A
:40100000FFF70EFFBD4602B080BDC046E000002080B500AF00F03EF8BD4680BD80B500AF054B054A1268802109060A431A6000F017F8BD4680BDC0460000074080B500AF87
:40104000064B1B78002B04D1FFF7E2FF034B01221A70FFF7E3FFBD4680BDC0464002002080B500AFBD4680BD80B582B000AF7860C046064B1A680F231340082BF9D0044B7F
:401080007A681A60BD4602B080BDC046080207404002074080B500AF174B184A1A60184B00221A60174B01221A60174B174A1A60174B07221A60174B00221A60164B01221E
:4010C0001A60164B114A1A60154B00221A60154B00221A60144B00221A60144B00221A60134B00221A60134B00221A60124B00221A60BD4680BDC046000007400B000002CB
:40110000400007404800074000030740070000800403074010030740440007400002074004020740880E0740C80E0740480F0740080F0740C80F0740880F074080B584B0A4
:4011400000AF78600023FB6009E07A68FB68D3181B78181CFFF788FFFB680133FB607A68FB68D3181B78002BEFD1BD4604B080BD80B500AF064B1B78002B04D100F00AF8BF
:40118000034B01221A7000F023F8BD4680BDC0464802002080B500AF084B72221A70084B20221A70074B07221A70074B48221A70064B00221A70BD4680BDC04681000F40A7
:4011C00083000F4021000F4031000F4080000F4090B583B000AFFC1DFFF72BFE031C2370104B104A1278D2B220210A43D2B21A700D4B0D4A1278D2B210210A43D2B21A70A5
:401200000A4B0A4A1278D2B210210A43D2B21A7000F07AF8FB1D1B78181CFFF70EFEBD4603B090BD91000F4093000F4090000F4080B582B000AF054AFB1D12781A70FB1DDB
:401240001B78181CBD4602B080BDC04642000F4080B582B000AF094B1B78DBB21A1C2023134001D0012300E00023FA1D1370FB1D1B78181CBD4602B080BDC04663000F40AD
:4012800080B582B000AF021CFB1D1A70C046074B1B78DBB21A1C04231340F8D1044BFA1D12781A70BD4602B080BDC04660000F4040000F4080B584B000AF78603B1C0E332F
:4012C00000221A800F4B1B78002B18D00FE03B1C0E331B887A68D3181B78181CFFF7D0FF3B1C0E333A1C0E32128801321A803B1C0E331B887A68D3181B78002BE7D1BD4699
:4013000004B080BD4802002080B500AF044B044A1268802109060A431A60BD4680BDC0464000024080B582B000AF00233B60C24B1B68002B02D0C04B1B689847BF4B1A68BE
:401340000123134002D0BE4B00221A60BD4B1B78DAB220231340DBB2002B3CD0BA4B1A6880235B0013400AD0B84B1B889BB2C022920013439AB2B54B1A8001233B60B24BED
:401380001A68012313400AD0B04B1B889BB29022920013439AB2AD4B1A8001233B603B68002B18D0A74B1B78DAB201231340DBB2002B01D0012300E00223A44A128892B27C
:4013C00091B21A1C0B1C13439BB29AB29F4B1A809C4B00221A709B4B1B78DAB220231340DBB2002B00D1AAE1974B1A68102313401CD0974B10221A60924B1B78DAB2012314
:401400001340DBB2002B01D0012300E002238F4A128892B291B21A1C0B1C13439BB29AB28A4B1A80874B10221A70BEE1854B1B78DAB208231340DBB2002B29D0824B1A6858
:40144000022313400ED0824B02221A607F4B1B889BB28822920013439AB27C4B1A8001233B6015E0774B1B78DAB201231340DBB2002B03D0734B25221A7009E0714B2422A1
:401480001A70744B1B68002B02D0734B10221A606C4B1B78DAB204231340DBB2002B00D111E1684B1B78DAB201231340DBB2002B5BD06A4B1A680823134033D0684B1A6815
:4014C000684B19680F231940674B1B68CB18D31A7B607B68082B02D908237B601EE07B68002B1BD1614B614A1168614A0A401A6008237B6001233B6010E05E4B1A685A4B9A
:401500001B68D2185C4B1B68DBB21370564B1B685A1C554B1A607B68013B7B607B68002BEBD11EE04D4B1A680423134019D0514B1A684D4B1B68D2184F4B1B68DBB21370C1
:40154000494B1B685A1C484B1A60474B1A68444B1B689A4203D2494B04221A6001E001233B60474B474A1A60ADE0374B1A680223134032D0364B02221A60434B1A68434BC1
:4015800019680F231940414B186880231B02034001D0012300E00023CB18D21A3A4B1A60394B1A683A4B1A60284B1B889BB28422920013439AB2254B1A80364B354A126884
:4015C000802149020A431A60324B324A1168324A0A401A6001233B6075E0304B1A681023134065D013E0284B1A681A4B1B689A4214D22B4B2B4A1168234A12688A181278B1
:40160000D2B21A60204B1B685A1C1F4B1A601F4B1A680F231340082BE5D100E0C0461A4B1A680C4B1B689A4202D10B4B40221A601D4B1E4A1A6046E03C0200208C0E0640D4
:40164000880E0640520200200C0F06405E020020000F064060020020880F0640CC0F064070020020080306406402002060000640FFFEFFFF6C020020400306406800064095
:40168000C00F0640ED0F000054020020080206405802002004020640FFFFFEFF8C0F06404002064068020020800F0640F30700003F4B1A684023134005D03E4B1A683E4BA5
:4016C0001A6001233B603B68002B6ED03B4B3B4A11683B4A0A401A603A4B00221A603A4B00221A60394B1B78DAB202231340DBB2002B19D0364B1B78DAB201231340DBB236
:40170000002B01D0092300E00A23324A128892B291B21A1C0B1C13439BB29AB22D4B1A802B4B60221A7040E02B4B2C4A116820220A4001D0182200E010221A6035E0244BCB
:401740001B78DAB210231340DBB2002B2DD1244B234A1268520052081A601D4B10221A70164B164A11681F4A0A401A60134B134A11681D4A0A401A60124B00221A60124B52
:4017800000221A60194B1A4A1A601A4B1A4A1A601A4B1B4A1A601B4B1B4A1A60104B104A1268802109060A431A60BD4602B080BD8C0F064054020020580200206000064070
:4017C000FFFEFFFFC80F0640880F06405C020020520200205E020020680006406400064000000640FF5FFFFFFFFCFFFF800F0640ED0F0000C00F0640F3070000400F06401A
:40180000FF0F0000000F064017030000002941D010B4041C4C40A44601230022002900D54942002800D5404288422CD301242407A14204D2814202D209011B01F8E7E400F7
:40184000A14204D2814202D249005B00F8E7884201D3401A1A434C08A04202D3001B5C0822438C08A04202D3001B9C082243CC08A04202D3001BDC082243002803D01B09D4
:4018800001D00909E3E7101C6446002C00D5404210BC7047002806D003DB0020C043400801E08020000607B4024802A14018029003BDC046190000000029EBD003B5FFF7CE
:4018C000A7FF0EBC4243891A1847C0467047C04670B50E4B0E4D0024E81A85101E1CAC4204D0A100725890470134F8E700F0B4F90849094A0E1C541AA5100024AC4204D0D4
:40190000A300F05880470134F8E770BD641C0000641C0000641C00006C1C000010B50023934203D0CC5CC4540133F9E710BD00B58218031C934202D019700133FAE700BD8B
:40194000000000002447505654470000244750474741000024504D544B3232302C3230302A32430024504D544B3330302C3230302C302C302C302C302A32460047504747F8
:40198000410000004750565447000000310000003000000048616E647368616B6520646F6E650A0D0000000000300F40000280320F40800100400F400004000000320F4082
:4019C000D41B00008000000003000F4061300F4035310F4012320F4041330F4004420F4004430F4002600F40800F81728338009C02220530074809020C2C0ED1113813431D
:401A0000153817451A031C091EF01F6F20802210241428302A4C2D162F0831073374341F36E037083A803B0A3F404062410545EB470C481349FF4AFF4BFF4EF04F44500CFA
:401A40005401580459045A045B045F0166C06A406B028021824A8D04910394449503962A98029A159F02A4E7A8E7AC80AD01B080B260B303B407B504B618B704B908BE40AA
:401A8000BF14C003C550C651C80EC9FFCA07CBFFCC40CD20CEF0CF05D008D602D713D804D904DA04DB04DF01E040E1A8E240E32002020380050209400A480B400E1410A09C
:401AC00012081540171419801A081B801D801E54224A24042544268029802D80328A368A38083A103F8040044504482049014A0A4B014C8050045610574059255A805F0274
:401B00006D406F1476207729C019C263C4EECA18CCDBCE16D044D20CD68F8A028E0198089C04A301A601AA02B001B204B402B501B608BE55D418D804D904DB04DF01006011
:401B40000410058A0A080B010E1610201208158416801729180619041B011C501D221E011F2422202609274629022D082E802F243502362037443D043E203F4045A24704CC
:401B80004C204D804F4054105A016004630280018D408F04921C934199029A209B299D049F02A180A804A920B502C0F3C2E3C4F6CA71CCF0CE70D0F0D210D601D80CE4043E
:401BC00008206702C202D60183019702B420EA021001110141000000F3080C000F18F0000000F30600010000827F0000C30000011C39E34408000000046700180C3900420D
:401C0000FF1000001C1F2C400F00C020000828220000004025030400010CE00009FFFFFF62A0F0410C00000000000000040404000000000100000000000040020010301070
:401C4000001010120000000000000000000000000000000004000000F8B5C046F8BC08BC9E467047C103000061080000F8B5C046F8BC08BC9E46704799030000901C00002D
:401C8000C800002020000000900100000000000000000000441900004C190000C0F1FF0F00366E01C05D0000180000000000E02E0000000000000000000000000000000022
:401CC00000000000000000000000000000000000000000000000000000000000000000000000000000000000000000000000000000000000000000000000000000000000E4
:401D000000000000000000000000000000000000000000000000000000000000000000000000000000000000000000000000000000000000000000000000000000000000A3
:401D40000000000000000000000000000000000000000000000000000000000000000000000000000000000000000000000000000000000000000000000000000000000063
:401D80000000000000000000000000000000000000000000000000000000000000000000000000000000000000000000000000000000000000000000000000000000000023
:0200000490303A
:02000000DB2AF9
:0200000490402A
:200000000000000000000000000000000000000000000000000000000000000000000000E0
:0200000490501A
:0C000000000204C81193110104D0ECBDF3
:0200000490600A
:0100000001FE
:00000001FF